S015000041736872616B7420536C6176652E7372656326
S11300000C942A000C943F000C943F000C943F0085
S11300100C943F000C943F000C943F000C943F0060
S11300200C943F000C943F000C943F000C943F0050
S11300300C9453000C943F000C943F000C943F002C
S11300400C943F000C943F000C943F000C943F0030
S11300500C943F0011241FBECFE5D8E0DEBFCDBF16
S113006010E0A0E6B0E0E2E7F2E002C005900D92F5
S1130070AA38B107D9F70E9441000C9437010C94B7
S113008000008AB38C608ABB0E9427010E94BD00D5
S11300908FB780688FBF8DB180688DB980E790E09D
S11300A00E94F800FFCF1F920F920FB60F921124F7
S11300B02F933F934F935F936F937F938F939F936C
S11300C0AF93BF93EF93FF930E943301823019F0F3
S11300D0843091F021C09BB388E089278BBB0E94B8
S11300E0230180E690E00E94F8004DE650E060E0D5
S11300F081E00E94180110C09BB384E089278BBB68
S11301000E9423018DE790E00E94F8004DE650E044
S113011060E081E00E941801FF91EF91BF91AF91DF
S11301209F918F917F916F915F914F913F912F910B
S11301300F900FBE0F901F90189592B39F7E92BBA5
S113014092B39F7D92BB85BB89EF90E00197F1F755
S113015000C0000082B3806482BB89EF90E0019705
S1130160F1F700C0000082B38F7B82BB89EF90E07F
S11301700197F1F700C0000008958FEF84BB81B3AD
S1130180806781BB82E00E949D0088E30E949D00FD
S11301908CE00E949D0081E00E949D00089592B32E
S11301A0906192BB92B39F7D92BB92B3906492BBD9
S11301B0E9EFF0E03197F1F700C0000085BB89EF6B
S11301C090E00197F1F700C0000082B3806482BB25
S11301D0E9EFF0E03197F1F700C0000082B38F7BC4
S11301E082BB89EF90E00197F1F700C00000089509
S11301F00F931F93CF938C01C0E003C00E94CF00E4
S1130200CF5FF801EC0FF11D80818111F7CFCF9101
S11302101F910F910895882329F0813021F490E4EF
S1130220960F01C0962F892F80680E949D00089523
S1130230CF93DF93EA010E940B01CE010E94F800E4
S1130240DF91CF91089581E00E949D00089587B3C6
S11302508F7487BB87B3806487BB83E68DB98EB107
S113026081608EB90895779BFECF8FB10895F8947D
S1050270FFCFBA
S11302724C45445F31204F4E2F4F46460052652D68
S1130282456E7465722031206F722032004C4544F1
S10D02925F32204F4E2F4F46460006
S9030000FC
