S017000041736872616B6174204D61737465722E7372656352
S11300000C942A000C943F000C943F000C943F0085
S11300100C943F000C943F000C943F000C943F0060
S11300200C943F000C943F000C943F000C943F0050
S11300300C943F000C943F000C943F000C943F0040
S11300400C943F000C943F000C943F000C943F0030
S11300500C943F0011241FBECFE5D8E0DEBFCDBF16
S113006010E0A0E6B0E0EEE2F6E002C005900D92EA
S1130070AE37B107D9F70E9441000C9415030C94D4
S113008000000E94650060E875E280E090E00E9454
S113009074008BE49DE10197F1F700C000000E9419
S11300A09A00813341F482E00E94700080E690E07F
S11300B00E94A200F4CF823391F784E00E94700082
S11300C08FE690E00E94A200EACF80EB87BB87B363
S11300D08F7B87BB83E78DB98EB181608EB908951C
S11300E08FB9779BFECF08952BB122602BB92AB12B
S11300F028692AB920B5266820BD0E94CD0120E0D8
S113010030E040E051E40E945B029B01AC0160E0FE
S113011074E284E79BE40E94250120E030E040E89B
S11301205FE30E94B8000E94C8020E94970169B967
S113013070BD08955F9BFECF8CB108958CB95D9B13
S1130140FECF08950F931F93CF93DF938C01C0E0EC
S1130150D0E003C00E949E002196F801EC0FFD1F21
S113016080818111F7CFDF91CF911F910F91089575
S11301705058BB27AA270E94D0000C9421020E9449
S1130180130238F00E941A0220F039F49F3F19F448
S113019026F40C9410020EF4E095E7FB0C940A028A
S11301A0E92F0E94320258F3BA17620773078407D3
S11301B0950720F079F4A6F50C9454020EF4E0951A
S11301C00B2EBA2FA02D0B01B90190010C01CA010D
S11301D0A0011124FF27591B99F0593F50F4503EB8
S11301E068F11A16F040A22F232F342F4427585FAA
S11301F0F3CF469537952795A795F0405395C9F7C2
S11302007EF41F16BA0B620B730B840BBAF0915079
S1130210A1F0FF0FBB1F661F771F881FC2F70EC018
S1130220BA0F621F731F841F48F4879577956795EB
S1130230B795F7959E3F08F0B0CF9395880F08F0D7
S11302409927EE0F9795879508950E9439010C948C
S113025021020E941A0258F00E94130240F029F46D
S11302605F3F29F00C940A0251110C9455020C942E
S113027010020E94320268F39923B1F3552391F3DB
S1130280951B550BBB27AA2762177307840738F001
S11302909F5F5F4F220F331F441FAA1FA9F335D05E
S11302A00E2E3AF0E0E832D091505040E695001C12
S11302B0CAF72BD0FE2F29D0660F771F881FBB1FCC
S11302C0261737074807AB07B0E809F0BB0B802DAA
S11302D0BF01FF2793585F4F3AF09E3F510578F0D6
S11302E00C940A020C9455025F3FE4F3983ED4F355
S11302F0869577956795B795F7959F5FC9F7880FAA
S1130300911D9695879597F90895E1E0660F771FFB
S1130310881FBB1F621773078407BA0720F0621B8C
S1130320730B840BBA0BEE1F88F7E09508950E94B7
S11303309E016894B1110C94550208950E943A02EA
S113034088F09F5798F0B92F9927B751B0F0E1F092
S1130350660F771F881F991F1AF0BA95C9F714C042
S1130360B13091F00E945402B1E008950C9454020B
S1130370672F782F8827B85F39F0B93FCCF386957B
S113038077956795B395D9F73EF4909580957095D8
S113039061957F4F8F4F9F4F0895E89409C097FB55
S11303A03EF490958095709561957F4F8F4F9F4F48
S11303B09923A9F0F92F96E9BB279395F69587958C
S11303C077956795B795F111F8CFFAF4BB0F11F44F
S11303D060FF1BC06F5F7F4F8F4F9F4F16C08823F6
S11303E011F096E911C0772321F09EE8872F762F2C
S11303F005C0662371F096E8862F70E060E02AF06D
S11304009A95660F771F881FDAF7880F9695879558
S113041097F9089597F99F6780E870E060E0089580
S11304209FEF80EC089500240A9416161706180608
S11304300906089500240A941216130614060506E4
S11304400895092E0394000C11F4882352F0BB0F75
S113045040F4BF2B11F460FF04C06F5F7F4F8F4FD8
S11304609F4F089557FD9058440F551F59F05F3F13
S113047071F04795880F97FB991F61F09F3F79F0C2
S113048087950895121613061406551FF2CF469544
S1130490F1DF08C0161617061806991FF1CF8695C6
S11304A07105610508940895E894BB2766277727AA
S11304B0CB0197F908950E946E020C9421020E94C8
S11304C0130238F00E941A0220F0952311F00C94C4
S11304D00A020C94100211240C9455020E94320258
S11304E070F3959FC1F3950F50E0551F629FF00183
S11304F0729FBB27F00DB11D639FAA27F00DB11D9C
S1130500AA1F649F6627B00DA11D661F829F222724
S1130510B00DA11D621F739FB00DA11D621F839FAB
S1130520A00D611D221F749F3327A00D611D231F81
S1130530849F600D211D822F762F6A2F11249F57CF
S113054050409AF0F1F088234AF0EE0FFF1FBB1FD2
S1130550661F771F881F91505040A9F79E3F510591
S113056080F00C940A020C9455025F3FE4F3983E29
S1130570D4F3869577956795B795F795E7959F5F3B
S1130580C1F7FE2B880F911D9695879597F90895CD
S11305900E943A02E8F09E37E8F09639B8F49E38A3
S11305A048F4672F782F8827985FF9CF8695779539
S11305B0679593959539D0F3B62FB1706B0F711D74
S11305C0811D20F487957795679593950C94EC029B
S11305D00C9407030C945502882371F4772321F0BB
S11305E09850872B762F07C0662311F499270DC0E6
S11305F09051862B70E060E02AF09A95660F771F81
S1130600881FDAF7880F9695879597F908959F3F85
S113061031F0915020F4879577956795B795880FB9
S1110620911D9695879597F90895F894FFCF4C
S113062E4C45445F31204F4E2F4F4646200A004C16
S111063E45445F32204F4E2F4F4646200A009F
S9030000FC
